:100000000C9435000C945D000C945D000C945D0024
:100010000C945D000C945D000C945D000C945D00EC
:100020000C945D000C945D000C945D000C945D00DC
:100030000C945D000C945D000C945D000C945D00CC
:100040000C94F6010C945D000C94C4010C949E0178
:100050000C945D000C945D000C945D000C945D00AC
:100060000C945D000C945D00540311241FBECFEF6F
:10007000D8E0DEBFCDBF11E0A0E0B1E0E6E5F7E0FB
:1000800002C005900D92A832B107D9F721E0A8E28D
:10009000B1E001C01D92AE3CB207E1F710E0C5E34C
:1000A000D0E004C02197FE010E94A303C433D1070E
:1000B000C9F70E9440020C94A9030C940000AF926F
:1000C000BF92CF92DF92EF92FF920F931F93CF9345
:1000D000DF936C017B018B01040F151FEB015E01A7
:1000E000AE18BF08C017D10759F06991D601ED913C
:1000F000FC910190F081E02DC6010995892B79F7DB
:10010000C501DF91CF911F910F91FF90EF90DF908C
:10011000CF90BF90AF900895FC01538D448D252F53
:1001200030E0842F90E0821B930B541710F0CF9691
:10013000089501970895FC01918D828D981761F0C3
:10014000A28DAE0FBF2FB11D5D968C91928D9F5FDA
:100150009F73928F90E008958FEF9FEF0895FC01B9
:10016000918D828D981731F0828DE80FF11D858D6C
:1001700090E008958FEF9FEF0895FC01918D228DFF
:10018000892F90E0805C9F4F821B91098F73992784
:10019000089581E391E00E94BD0021E0892B09F4DC
:1001A00020E0822F089580E090E0892B29F00E94C2
:1001B000C90081110C9400000895FC01A48DA80FC2
:1001C000B92FB11DA35ABF4F2C91848D90E0019699
:1001D0008F739927848FA689B7892C93A089B189B9
:1001E0008C91837080648C93938D848D981306C05A
:1001F0000288F389E02D80818F7D80830895EF92BE
:10020000FF920F931F93CF93DF93EC0181E0888FD0
:100210009B8D8C8D98131AC0E889F989808185FFA0
:1002200015C09FB7F894EE89FF896083E889F98942
:1002300080818370806480839FBF81E090E0DF9144
:10024000CF911F910F91FF90EF900895F62E0B8D97
:1002500010E00F5F1F4F0F731127E02E8C8D8E1152
:100260000CC00FB607FCFACFE889F989808185FFB9
:10027000F5CFCE010E94DD00F1CFEB8DEC0FFD2F0D
:10028000F11DE35AFF4FF0829FB7F8940B8FEA8974
:10029000FB8980818062CFCFCF93DF93EC01888D83
:1002A0008823B9F0AA89BB89E889F9898C9185FDF1
:1002B00003C0808186FD0DC00FB607FCF7CF8C917F
:1002C00085FFF2CF808185FFEDCFCE010E94DD005A
:1002D000E9CFDF91CF9108953FB7F89480912D0138
:1002E00090912E01A0912F01B091300126B5A89BCD
:1002F00005C02F3F19F00196A11DB11D3FBFBA2FB8
:10030000A92F982F8827BC01CD01620F711D811D77
:10031000911D42E0660F771F881F991F4A95D1F7FC
:100320000895FC0101900020E9F73197AF01481BC7
:10033000590BBC0181E391E00C945F001F920F9276
:100340000FB60F9211242F933F934F935F936F93A8
:100350007F938F939F93AF93BF93EF93FF9381E32B
:1003600091E00E94DD00FF91EF91BF91AF919F91CD
:100370008F917F916F915F914F913F912F910F904E
:100380000FBE0F901F9018951F920F920FB60F92ED
:1003900011242F938F939F93EF93FF93E09141014B
:1003A000F09142018081E0914701F091480182FD86
:1003B0001BC0908180914A018F5F8F7320914B0108
:1003C000821741F0E0914A01F0E0EF5CFE4F958F1B
:1003D00080934A01FF91EF919F918F912F910F9000
:1003E0000FBE0F901F9018958081F4CF1F920F922F
:1003F0000FB60F9211242F933F938F939F93AF9338
:10040000BF938091290190912A01A0912B01B09175
:100410002C013091280123E0230F2D3758F5019648
:10042000A11DB11D209328018093290190932A01D9
:10043000A0932B01B0932C0180912D0190912E015E
:10044000A0912F01B09130010196A11DB11D8093A3
:100450002D0190932E01A0932F01B0933001BF91F5
:10046000AF919F918F913F912F910F900FBE0F9061
:100470001F90189526E8230F0296A11DB11DD2CF1B
:10048000CF93DF93CDB7DEB7A1970FB6F894DEBF59
:100490000FBECDBF789484B5826084BD84B5816081
:1004A00084BD85B5826085BD85B5816085BD80913F
:1004B0006E00816080936E001092810080918100B7
:1004C00082608093810080918100816080938100AF
:1004D000809180008160809380008091B100846071
:1004E0008093B1008091B00081608093B0008091D2
:1004F0007A00846080937A0080917A008260809391
:100500007A0080917A00816080937A0080917A00ED
:10051000806880937A001092C100E0914101F091CF
:10052000420182E08083E0913D01F0913E01108222
:10053000E0913F01F09140018FEC808310924901DE
:10054000E0914501F091460186E08083E09143010E
:10055000F0914401808180618083E0914301F091BA
:100560004401808188608083E0914301F0914401DF
:10057000808180688083E0914301F0914401808113
:100580008F7D808390E4392E2AE0822E912CA12C3D
:10059000B12C00E010E030927C0080917A00806401
:1005A00080937A0080917A0086FDFCCFC09078001D
:1005B000D090790082E191E00E9491010D2C000C15
:1005C000EE08FF08F7FE5AC06DE281E391E00E9459
:1005D000FF0022273327A9012C193D094E095F0985
:1005E00019A2CE0181967C01CA01B901A50194012D
:1005F0000E948103605DF70162937F01211531053F
:100600004105510589F7E114F10419F0C7010E9471
:10061000910185E291E00E9491010E946C012B0101
:100620003C0188EEC82E83E0D82EE12CF12C0E94EC
:100630006C016419750986099709683E7340810544
:100640009105A8F3F1E0CF1AD108E108F10828EEEE
:10065000420E23E0521E611C711CC114D104E1043E
:10066000F10429F70115110509F495CF0E94C9007D
:10067000882309F490CF0E9400008DCFA701960136
:1006800019A2CE0181967C01CA01B901A50194018C
:100690000E948103605DF70162937F01211531059E
:1006A0004105510589F7AFCFE1E3F1E013821282F2
:1006B00088EE93E0A0E0B0E084839583A683B783BF
:1006C00084E091E09183808385EC90E09587848736
:1006D00084EC90E09787868780EC90E0918B808B0C
:1006E00081EC90E0938B828B82EC90E0958B848BF5
:1006F00086EC90E0978B868B118E128E138E148E63
:100700000895A1E21A2EAA1BBB1BFD010DC0AA1F52
:10071000BB1FEE1FFF1FA217B307E407F50720F06A
:10072000A21BB30BE40BF50B661F771F881F991FE5
:100730001A9469F760957095809590959B01AC012E
:10074000BD01CF010895EE0FFF1F0590F491E02D3C
:060750000994F894FFCFAC
:1007560000000000FF005F008C004C01BD009B0004
:10076600AF004D51362053656E736F722056616C23
:0807760075653A20000D0A0030
:00000001FF
